S00C00006C6162352E73726563B4
S11300000C9434000C94A4000C9451000C945100F2
S11300100C9451000C9451000C9451000C94510018
S11300200C9451000C9451000C9451000C94510008
S11300300C9451000C9451000C9451000C945100F8
S11300400C9451000C9451000C9451000C945100E8
S11300500C9451000C9451000C9451000C945100D8
S11300600C9451000C94510011241FBECFEFD8E022
S1130070DEBFCDBF11E0A0E0B1E0E4EEF2E002C0EB
S113008005900D92A231B107D9F721E0A2E1B1E0C8
S113009001C01D92A431B207E1F70E9453000C94F1
S11300A070010C9400000E94C8000E949000789493
S11300B00E94BD008823E1F30E94C0008823C1F39D
S11300C090E0A0E0B0E02227382F492F5A2F60E0BB
S11300D071EE85EF95E00E943F0169017A0180E0AD
S11300E091E00E94DB00C701B60124E630E040E065
S11300F050E00E943F01C62FC9010E94E8008EE231
S11301000E94D400CA3018F480E30E94D4008C2FDB
S113011090E00E94E8008CE091E00E94DB00C8CFF0
S11301208AB18B7F8AB914BC15BC16BCE9E6F0E031
S113013080818D7F808380818160808381E08CBB1E
S11301408DB381608DBB08951F920F920FB60F92ED
S113015011248F934A9B04C016BC84E085BD07C05C
S113016015BC86B58093130181E0809312018F91B1
S11301700F900FBE0F901F90189580911201089553
S11301809FB7F89480911301109212019FBF0895B4
S11301901092C5008CE08093C40088E08093C10075
S11301A086E08093C20008959091C00095FFFCCF33
S11301B08093C6000895CF93DF93EC0103C00E949F
S11301C0D400219688818111FACFDF91CF910895CF
S11301D01F93CF93DF9300D000D01F92CDB7DEB72B
S11301E0AC01892B91F580E30E94D4003FC09A01B1
S11301F0ADECBCEC0E946101969587959695879528
S1130200969587959C01220F331F880F991F880F9D
S1130210991F880F991F820F931F9A01281B390B6E
S1130220C901E1E0F0E0EC0FFD1FE10FF11D805D7D
S113023080839A010E946101AC01569547955695B9
S11302404795569547951F5F01C010E0411551052C
S113025071F60AC01150E1E0F0E0EC0FFD1FE10F70
S1130260F11D80810E94D4001111F4CF0F900F90E2
S11302700F900F900F90DF91CF911F910895A1E2FD
S11302801A2EAA1BBB1BFD010DC0AA1FBB1FEE1F0C
S1130290FF1FA217B307E407F50720F0A21BB30B57
S11302A0E40BF50B661F771F881F991F1A9469F7D3
S11302B060957095809590959B01AC01BD01CF012F
S11302C00895A29FB001B39FC001A39F700D811D2B
S11302D01124911DB29F700D811D1124911D08954B
S10702E0F894FFCFBC
S11302E44672657175656E63793A200020487A0D0B
S10502F40A00FA
S9030000FC
