S00C00006C6162352E73726563B4
S11300000C9434000C943E000C943E000C943E007E
S11300100C943E000C943E000C943E000C943E0064
S11300200C943E000C943E000C943E000C943E0054
S11300300C943E000C943E000C943E000C943E0044
S11300400C943E000C943E000C943E000C943E0034
S11300500C943E000C943E000C943E000C943E0024
S11300600C943E000C943E0011241FBECFEFD8E048
S1130070DEBFCDBF0E9443000C945B000C940000D3
S113008017B81AB808950E94400085B1806285B9F6
S11300902FEE89E492E0215080409040E1F700C0C7
S11300A0000085B18F7D85B983E294EF0197F1F764
S10D00B000C00000EACFF894FFCF6F
S9030000FC
