S00C00006C6162352E73726563B4
S11300000C9434000C943E000C943E000C943E007E
S11300100C943E000C943E000C943E000C943E0064
S11300200C943E000C943E000C943E000C943E0054
S11300300C943E000C943E000C943E000C943E0044
S11300400C943E000C943E000C943E000C943E0034
S11300500C943E000C943E000C943E000C943E0024
S11300600C943E000C943E0011241FBECFEFD8E048
S1130070DEBFCDBF0E944C000C946B000C940000BA
S113008084B1806284B985B18F7D85B9089595B1B5
S113009080E2892785B908950E9440000E94570094
S11300A00E9462008823E1F30E944700F9CF14BC48
S11300B015BC16BC8DE487BD82E084BD85BB84E09D
S11300C085BD089595B3892F827091FF03C082E0A6
S10D00D085BB81E00895F894FFCF8A
S9030000FC
