S00C00006C6162352E73726563B4
S11300000C9434000C943E000C943E000C943E007E
S11300100C943E000C943E000C943E000C943E0064
S11300200C943E000C943E000C943E000C943E0054
S11300300C943E000C943E000C9463000C943E001F
S11300400C943E000C943E000C943E000C943E0034
S11300500C943E000C943E000C943E000C943E0024
S11300600C943E000C943E0011241FBECFEFD8E048
S1130070DEBFCDBF0E944C000C9487000C9400009E
S113008084B1806284B985B18F7D85B9089595B1B5
S113009080E2892785B908950E9440000E94520099
S11300A07894FFCF14BC15BC16BC16BC8DE487BD78
S11300B082E084BD85BBEEE6F0E0808182608083CF
S11300C084E085BD08951F920F920FB60F921124FC
S11300D02F933F934F935F936F937F938F939F934C
S11300E0AF93BF93EF93FF930E944700FF91EF916B
S11300F0BF91AF919F918F917F916F915F914F913C
S11301003F912F910F900FBE0F901F901895F89468
S1050110FFCF1B
S9030000FC
